:100000000C945E000C9486000C9486000C94860080
:100010000C9486000C9486000C9486000C94860048
:100020000C9486000C9486000C9486000C94860038
:100030000C9486000C9486000C9486000C94860028
:100040000C942F040C9486000C94FD030C94D7039D
:100050000C9486000C9486000C9486000C94860008
:100060000C9486000C948600000000080002010039
:100070000003040700000000000000000000000072
:10008000250028002B0000000000240027002A0083
:10009000040404040404040402020202020203032E
:1000A0000303030301020408102040800102040836
:1000B00010200102040810207904F50511241FBE48
:1000C000CFEFD8E0DEBFCDBF21E0AAE1B1E001C0B3
:1000D0001D92AF3CB207E1F711E0A0E0B1E0E2EA27
:1000E000F0E102C005900D92AA31B107D9F710E0F6
:1000F000CDE5D0E004C02197FE010E943206CC3548
:10010000D107C9F70E94B4040C9444080C94000071
:1001100090E0FC01EC55FF4F2491FC01E057FF4FAC
:100120008491882399F090E0880F991FFC01EA5789
:10013000FF4FA591B491FC01E458FF4F8591949134
:100140008FB7F894EC91E22BEC938FBF08952FB703
:10015000F8948091240190912501A0912601B091FD
:1001600027012FBF8093300190933101A09332017A
:10017000B0933301E0912801F09129010284F385C5
:10018000E02D88E291E0099597FF26C02FB7F894FB
:100190008091240190912501A0912601B091270121
:1001A0002FBF409130015091310160913201709127
:1001B0003301841B950BA60BB70B40912C0150917A
:1001C0002D0160912E0170912F0184179507A607CC
:1001D000B70780F28FEF9FEF08952091C90130910A
:1001E000CA018217930738F42091C5013091C601E6
:1001F0002115310529F41092230183E291E008953D
:10020000820F931F08950895CF92DF92EF92FF928D
:100210000F931F93CF93DF936C017A018B01C0E0A2
:10022000D0E0CE15DF0589F0D8016D918D01D601A2
:10023000ED91FC910190F081E02DC6010995892B8B
:1002400011F47E0102C02196ECCFC701DF91CF915E
:100250001F910F91FF90EF90DF90CF900895089538
:1002600080E090E00895FC01538D448D252F30E00F
:10027000842F90E0821B930B541710F0CF960895B3
:1002800001970895FC01918D828D981761F0828D00
:10029000DF01A80FB11D5D968C91928D9F5F9F73BA
:1002A000928F90E008958FEF9FEF0895FC01918D5C
:1002B000828D981731F0828DE80FF11D858D90E0C9
:1002C00008958FEF9FEF0895FC01918D228D892F66
:1002D00090E0805C9F4F821B91098F73992708954E
:1002E00088E291E00E94640121E0892B09F420E07A
:1002F000822F0895FC01848DDF01A80FB11DA35A40
:10030000BF4F2C91848D90E001968F739927848F35
:10031000A689B7892C93A089B1898C9180648C932C
:10032000938D848D981306C00288F389E02D808117
:100330008F7D80830895EF92FF920F931F93CF9349
:10034000DF93EC0181E0888F9B8D8C8D981305C025
:10035000E889F989808185FD24C0F62E0B8D10E097
:100360000F5F1F4F0F731127E02E8C8DE8120CC00A
:100370000FB607FCFACFE889F989808185FFF5CFB0
:10038000CE010E947A01F1CF8B8DFE01E80FF11DA5
:10039000E35AFF4FF0820B8FEA89FB8980818062EC
:1003A00007C0EE89FF896083E889F98980818064CC
:1003B000808381E090E0DF91CF911F910F91FF90BA
:1003C000EF900895CF93DF93EC01888D8823C9F0D7
:1003D000EA89FB89808185FD05C0A889B9898C914E
:1003E00086FD0FC00FB607FCF5CF808185FFF2CFE9
:1003F000A889B9898C9185FFEDCFCE010E947A0141
:10040000E7CFDF91CF91089580E090E0892B29F02C
:100410000E94700181110C940000089590E0FC018D
:10042000E859FF4F3491FC01EC55FF4F2491FC013A
:10043000E057FF4FE491EE2309F43BC0332339F139
:10044000333091F038F43130A9F0323001F584B511
:100450008F7D12C0373091F03830A1F03430B9F4CC
:10046000809180008F7D03C0809180008F77809382
:1004700080000DC084B58F7784BD09C08091B00025
:100480008F7703C08091B0008F7D8093B000F0E043
:10049000EE0FFF1FE458FF4FA591B4918FB7F8946A
:1004A000EC91611103C020952E2301C02E2B2C93BB
:1004B0008FBF08953FB7F89480911B0190911C0164
:1004C000A0911D01B0911E0126B5A89B05C02F3F2C
:1004D00019F00196A11DB11D3FBFBA2FA92F982F6A
:1004E0008827820F911DA11DB11DBC01CD0142E0E5
:1004F000660F771F881F991F4A95D1F708958F922D
:100500009F92AF92BF92CF92DF92EF92FF926B01D8
:100510007C010E945A024B015C01C114D104E10428
:10052000F104F1F00E945A02DC01CB01881999090B
:10053000AA09BB09883E9340A105B10570F321E0EB
:10054000C21AD108E108F10888EE880E83E0981EEF
:10055000A11CB11CC114D104E104F10419F7DDCFD1
:10056000FF90EF90DF90CF90BF90AF909F908F90D3
:100570000895CF92DF92EF92FF920F931F93CF9344
:10058000DF93042F440F110B081B110987FD1395EE
:10059000C22F220FDD0BC61BD10967FDD3951016A4
:1005A000110674F5E12CF12C61E082E00E940E024C
:1005B0003FEAC32ED12C61E083E00E940E0262E08C
:1005C00070E080E090E00E947F0260E083E00E94A3
:1005D0000E0262E070E080E090E00E947F0281E025
:1005E000C81AD10841F78FEFE81AF80AE016F106A9
:1005F000D9F61C161D060CF053C000E010E048C0F0
:10060000119501951109E12CF12CE016F10689F301
:1006100060E082E00E940E022FEAC22ED12C61E03F
:1006200083E00E940E0262E070E080E090E00E94B1
:100630007F0260E083E00E940E0262E070E080E0F2
:1006400090E00E947F0281E0C81AD10841F78FEF45
:10065000E81AF80ADACF61E08DE00E940E0262E04B
:1006600070E080E090E00E947F0260E08DE00E94F8
:100670000E0262E070E080E090E00E947F0281E084
:10068000E81AF10841F70F5F1F4F0C171D0791F192
:1006900061E08CE00E940E029FEAE92EF12CDBCF94
:1006A000D195C195D10900E010E00C171D0711F19B
:1006B00060E08CE00E940E028FEAE82EF12C61E0EF
:1006C0008DE00E940E0262E070E080E090E00E9407
:1006D0007F0260E08DE00E940E0262E070E080E048
:1006E00090E00E947F0281E0E81AF10841F70F5F75
:1006F0001F4FDBCFDF91CF911F910F91FF90EF90B4
:10070000DF90CF9008950E942F080F931F93CF93EF
:10071000DF93EC0188819981009729F02A813B8140
:100720002617370788F48B016F5F7F4F0E9465079C
:10073000009761F0998388831B830A832C813D8114
:10074000232B11F4FC01108281E001C080E0DF91D5
:10075000CF911F910F910895EF92FF920F931F93E6
:10076000CF93DF93EC017B018A01BA010E948503DC
:100770002881398181110DC02115310519F0C90178
:100780000E94CD06198218821D821C821B821A8249
:1007900006C01D830C83B701C9010E943D08CE012C
:1007A000DF91CF911F910F91FF90EF9008951F92CD
:1007B0000F920FB60F9211242F933F934F935F9395
:1007C0006F937F938F939F93AF93BF93EF93FF9319
:1007D00088E291E00E947A01FF91EF91BF91AF9181
:1007E0009F918F917F916F915F914F913F912F9149
:1007F0000F900FBE0F901F9018951F920F920FB67B
:100800000F9211242F938F939F93EF93FF93E09177
:100810003801F09139018081E0913E01F0913F0172
:1008200082FD12C09081809141018F5F8F73209172
:100830004201821751F0E0914101F0E0E85DFE4F86
:10084000958F8093410101C08081FF91EF919F912D
:100850008F912F910F900FBE0F901F9018951F92A0
:100860000F920FB60F9211242F933F938F939F9364
:10087000AF93BF938091240190912501A09126010F
:10088000B091270130911A0123E0230F2D3720F476
:100890000196A11DB11D05C026E8230F0296A11DDA
:1008A000B11D20931A018093240190932501A093F8
:1008B0002601B093270180911B0190911C01A0910A
:1008C0001D01B0911E010196A11DB11D80931B0158
:1008D00090931C01A0931D01B0931E01BF91AF9195
:1008E0009F918F913F912F910F900FBE0F901F906E
:1008F0001895E8E2F1E01382128288EE93E0A0E01E
:10090000B0E084839583A683B7838AE091E09183E6
:10091000808385EC90E09587848784EC90E09787CE
:10092000868780EC90E0918B808B81EC90E0938BBC
:10093000828B82EC90E0958B848B86EC90E0978B99
:10094000868B118E128E138E148EE5ECF1E01182DF
:100950001082138212821582148240E050E068E116
:1009600071E0CF010C94AC03CF93DF93CDB7DEB72A
:1009700028970FB6F894DEBF0FBECDBF789484B52C
:10098000826084BD84B5816084BD85B5826085BD8B
:1009900085B5816085BD80916E00816080936E0019
:1009A000109281008091810082608093810080910B
:1009B00081008160809381008091800081608093BC
:1009C00080008091B10084608093B1008091B0007C
:1009D00081608093B00080917A00846080937A0077
:1009E00080917A00826080937A0080917A008160A1
:1009F00080937A0080917A00806880937A001092C8
:100A0000C10082E00E9488008CE00E94880083E0A0
:100A10000E9488008DE00E948800E0913801F091EA
:100A2000390182E08083E0913401F0913501108238
:100A3000E0913601F09137018FEC808310924001F4
:100A4000E0913C01F0913D0186E08083E0913A0124
:100A5000F0913B01808180618083E0913A01F091C7
:100A60003B01808188608083E0913A01F0913B01F5
:100A7000808180688083E0913A01F0913B01808120
:100A80008F7D808388E291E00E946401892B09F4C4
:100A9000A9C01A8219821C821B821E821D8240E01C
:100AA00050E068E171E0CE0101960E94AC030E9423
:100AB000A70097FD1EC08A309105D9F08F83188654
:100AC0000D811E810F5F1F4FB801CE0101960E945C
:100AD0008503882361F329813A818D819E81BE013E
:100AE000695F7F4F820F931F0E943D081E830D8315
:100AF000DECF8091C5019091C6010097C9F0698150
:100B00007A816115710591F04091C7015091C8013A
:100B10002D813E814217530748F00E943D088D8188
:100B20009E819093CA018093C90118C00E94CD068E
:100B300089819A819093C6018093C5018B819C81A4
:100B40009093C8018093C7018D819E819093CA01C3
:100B50008093C9011A8219821C821B821E821D8207
:100B600089819A810E94CD0680E090E00E94ED008C
:100B7000FC01E080E092220181E090E00E94ED0023
:100B8000FC01F080F092210182E090E00E94ED00F3
:100B9000FC0100810093200183E090E00E94ED00C1
:100BA000FC01108110931F012E2D4F2D61E681E372
:100BB0000E94B90260ED77E080E090E00E947F0241
:100BC000202F412F6E2D8F2D0E94B90260ED77E00E
:100BD00080E090E00E947F0221E641E3602F812FB8
:100BE0000E94B9020E9404024DCF8091C5019091EC
:100BF000C6010C94CD062F923F924F925F926F9256
:100C00007F928F929F92AF92BF92CF92DF92EF929C
:100C1000FF920F931F93CF93DF93CDB7DEB7CA1B1D
:100C2000DB0B0FB6F894DEBF0FBECDBF09942A8848
:100C3000398848885F846E847D848C849B84AA84F0
:100C4000B984C884DF80EE80FD800C811B81AA817D
:100C5000B981CE0FD11D0FB6F894DEBF0FBECDBF48
:100C6000ED010895EE0FFF1F0590F491E02D09941A
:100C7000CF93DF938230910510F482E090E0E09111
:100C8000CD01F091CE0120E030E0C0E0D0E030971F
:100C900011F14081518148175907C0F04817590791
:100CA00061F482819381209719F09B838A832BC002
:100CB0009093CE018093CD0126C02115310519F006
:100CC0004217530718F49A01BE01DF01EF010280B9
:100CD000F381E02DDCCF2115310509F1281B390BFB
:100CE0002430310590F412968D919C9113976115E3
:100CF000710521F0FB019383828304C09093CE01A0
:100D00008093CD01FD01329644C0FD01E20FF31F37
:100D100081939193225031092D933C933AC02091B5
:100D2000CB013091CC01232B41F420910201309171
:100D300003013093CC012093CB012091000130912D
:100D400001012115310541F42DB73EB74091040151
:100D500050910501241B350BE091CB01F091CC01A2
:100D6000E217F307A0F42E1B3F0B2817390778F082
:100D7000AC014E5F5F4F2417350748F04E0F5F1FE1
:100D80005093CC014093CB018193919302C0E0E05A
:100D9000F0E0CF01DF91CF9108950F931F93CF9390
:100DA000DF93009709F48CC0FC0132971382128202
:100DB0000091CD011091CE010115110581F4208122
:100DC0003181820F931F2091CB013091CC012817E4
:100DD000390779F5F093CC01E093CB0171C0D801CC
:100DE00040E050E0AE17BF0750F412962D913C91B1
:100DF0001397AD012115310509F1D901F3CF9D01FB
:100E0000DA013383228360817181860F971F8217F5
:100E1000930769F4EC0128813981260F371F2E5F73
:100E20003F4F318320838A819B8193838283452B2B
:100E300029F4F093CE01E093CD0142C01396FC93C8
:100E4000EE931297ED01499159919E01240F351FA0
:100E5000E217F30771F480819181840F951F029648
:100E600011969C938E938281938113969C938E937B
:100E70001297E0E0F0E0D80112968D919C911397C3
:100E8000009719F0F8018C01F6CF8D919C91980193
:100E90002E5F3F4F820F931F2091CB013091CC01E9
:100EA0002817390769F4309729F41092CE0110926F
:100EB000CD0102C0138212821093CC010093CB01AA
:100EC000DF91CF911F910F910895A0E0B0E0EBE684
:100ED000F7E00C94FF05EC01009721F4CB010E9490
:100EE0003806B8C0FC01E60FF71F9C0122503109FB
:100EF000E217F30708F4ACC0D9010D911C911197CA
:100F000006171707B0F00530110508F49FC0C80197
:100F100004978617970708F499C002501109061B19
:100F2000170B019311936D937C93CF010E94CD0613
:100F30008DC05B01A01AB10A4C01800E911EA091D8
:100F4000CD01B091CE0140E050E0E12CF12C1097A2
:100F500009F44AC0A815B905D1F56D907C90119798
:100F6000630182E0C80ED11CCA14DB0480F1A30126
:100F70004A195B096A0182E0C80ED11C1296BC9026
:100F800012971396AC91B5E0CB16D10440F0B28223
:100F9000A38351834083D9016D937C930AC00E5F74
:100FA0001F4FC301800F911FF90191838083EB2DA7
:100FB000FA2FE114F10431F0D7011396FC93EE936C
:100FC000129744C0F093CE01E093CD013FC08D91C4
:100FD0009C9111974817590708F4AC017D011296AE
:100FE0000D90BC91A02DB3CF8091CB019091CC01FD
:100FF00088159905E1F446175707C8F48091000158
:1010000090910101009741F48DB79EB74091040182
:1010100050910501841B950BE817F907C8F4F0936C
:10102000CC01E093CB01F901718360830FC0CB0148
:101030000E9438067C01009759F0A801BE010E9469
:101040003408CE010E94CD06C70104C0CE0102C003
:1010500080E090E0CDB7DEB7EEE00C941B0681E0B7
:1010600090E0F8940C944408FB01DC0102C001906C
:101070000D9241505040D8F70895FB01DC010190DA
:101080000D920020E1F7089510E0CDE5D0E004C016
:10109000FE010E9432062196CE35D107C9F7F89499
:0210A000FFCF80
:1010A2000000CF018000000000009B010401330119
:0A10B200E201640142015601000052
:00000001FF
